:020000040800F2
:1000000000500020551800088D17000893170008AD
:10001000991700089F170008A517000800000000A6
:10002000000000000000000000000000AB17000806
:10003000B717000800000000C3170008CF1700081A
:100040009D1800089D1800089D1800089D180008BC
:100050009D1800089D1800089D1800089D180008AC
:100060009D1800089D1800089D1800089D1800089C
:100070009D1800089D1800089D1800089D1800088C
:100080009D1800089D1800089D1800089D1800087C
:100090009D1800089D1800089D1800089D1800086C
:1000A0009D1800089D1800089D1800089D1800085C
:1000B0009D1800089D1800089D1800089D1800084C
:1000C0009D1800089D1800089D1800089D1800083C
:1000D0009D1800089D1800089D1800089D1800082C
:1000E0009D1800089D1800089D18000800000000D9
:1000F0000000000000000000000000000000000000
:0C01000000000000000000005FF808F1A3
:10010C0010B5054C237833B9044B13B10448AFF345
:10011C0000800123237010BD5C0000200000000053
:10012C00E03E000808B5034B1BB103490348AFF38D
:10013C00008008BD0000000060000020E03E0008C8
:10014C0081F0004102E000BF83F0004330B54FEA7C
:10015C0041044FEA430594EA050F08BF90EA020FE9
:10016C001FBF54EA000C55EA020C7FEA645C7FEA7C
:10017C00655C00F0E2804FEA5454D4EB5555B8BF9F
:10018C006D420CDD2C4480EA020281EA030382EA10
:10019C00000083EA010180EA020281EA0303362DA2
:1001AC0088BF30BD11F0004F4FEA01314FF4801C75
:1001BC004CEA113102D0404261EB410113F0004F87
:1001CC004FEA03334CEA133302D0524263EB43033E
:1001DC0094EA050F00F0A780A4F10104D5F1200EDC
:1001EC000DDB02FA0EFC22FA05F2801841F1000137
:1001FC0003FA0EF2801843FA05F359410EE0A5F10B
:10020C0020050EF1200E012A03FA0EFC28BF4CF03B
:10021C00020C43FA05F3C01851EBE37101F00045F1
:10022C0007D54FF0000EDCF1000C7EEB00006EEBFE
:10023C000101B1F5801F1BD3B1F5001F0CD3490888
:10024C005FEA30004FEA3C0C04F101044FEA4452DF
:10025C0012F5800F80F09A80BCF1004F08BF5FEA66
:10026C00500C50F1000041EB045141EA050130BD46
:10027C005FEA4C0C404141EB0101013C28BFB1F558
:10028C00801FE9D291F0000F04BF01460020B1FAA3
:10029C0081F308BF2033A3F10B03B3F120020CDA76
:1002AC000C3208DD02F1140CC2F10C0201FA0CF054
:1002BC0021FA02F10CE002F11402D8BFC2F1200CB9
:1002CC0001FA02F120FA0CFCDCBF41EA0C0190406F
:1002DC00E41AA2BF01EB0451294330BD6FEA0404B8
:1002EC001F3C1CDA0C340EDC04F11404C4F12002A3
:1002FC0020FA04F001FA02F340EA030021FA04F3B5
:10030C0045EA030130BDC4F10C04C4F1200220FA0B
:10031C0002F001FA04F340EA0300294630BD21FA49
:10032C0004F0294630BD94F0000F83F4801306BF0F
:10033C0081F480110134013D4EE77FEA645C18BF03
:10034C007FEA655C29D094EA050F08BF90EA020F9A
:10035C0005D054EA000C04BF1946104630BD91EA92
:10036C00030F1EBF0021002030BD5FEA545C05D195
:10037C004000494128BF41F0004130BD14F58004D4
:10038C003CBF01F5801130BD01F0004545F0FE4148
:10039C0041F470014FF0000030BD7FEA645C1ABF7D
:1003AC00194610467FEA655C1CBF0B46024650EAB4
:1003BC00013406BF52EA033591EA030F41F40021E0
:1003CC0030BD00BF90F0000F04BF0021704730B566
:1003DC004FF4806404F132044FF000054FF000013B
:1003EC0050E700BF90F0000F04BF0021704730B5FC
:1003FC004FF4806404F1320410F0004548BF4042D1
:10040C004FF000013EE700BF42004FEAE2014FEA25
:10041C0031014FEA02701FBF12F07F4393F07F4F00
:10042C0081F06051704732F07F4208BF704793F003
:10043C007F4F04BF41F40021704730B54FF4607416
:10044C0001F0004521F000411CE700BF50EA010219
:10045C0008BF704730B54FF000050AE050EA0102C2
:10046C0008BF704730B511F0004502D5404261EB32
:10047C0041014FF4806404F132045FEA915C3FF473
:10048C00D8AE4FF003025FEADC0C18BF03325FEA10
:10049C00DC0C18BF033202EBDC02C2F1200300FAC1
:1004AC0003FC20FA02F001FA03FE40EA0E0021FAE6
:1004BC0002F11444BDE600BF70B54FF0FF0C4CF4D4
:1004CC00E06C1CEA11541DBF1CEA135594EA0C0F86
:1004DC0095EA0C0F00F0DEF82C4481EA030621EAC1
:1004EC004C5123EA4C5350EA013518BF52EA0335FC
:1004FC0041F4801143F4801338D0A0FB02CE4FF0AE
:10050C000005E1FB02E506F00042E0FB03E54FF0DD
:10051C000006E1FB03569CF0000F18BF4EF0010ED5
:10052C00A4F1FF04B6F5007F64F5407404D25FEAD1
:10053C004E0E6D4146EB060642EAC62141EA555184
:10054C004FEAC52040EA5E504FEACE2EB4F1FD0CC6
:10055C0088BFBCF5E06F1ED8BEF1004F08BF5FEA44
:10056C00500E50F1000041EB045170BD06F00046F6
:10057C0046EA010140EA020081EA0301B4EB5C04A3
:10058C00C2BFD4EB0C0541EA045170BD41F480119B
:10059C004FF0000E013C00F3AB8014F1360FDEBFC0
:1005AC00002001F0004170BDC4F10004203C35DA9C
:1005BC000C341BDC04F11404C4F1200500FA05F31F
:1005CC0020FA04F001FA05F240EA020001F00042C0
:1005DC0021F0004110EBD37021FA04F642EB060136
:1005EC005EEA430E08BF20EAD37070BDC4F10C0460
:1005FC00C4F1200500FA04F320FA05F001FA04F224
:10060C0040EA020001F0004110EBD37041F100010F
:10061C005EEA430E08BF20EAD37070BDC4F120051A
:10062C0000FA05F24EEA020E20FA04F301FA05F282
:10063C0043EA020321FA04F001F0004121FA04F22A
:10064C0020EA020000EBD3705EEA430E08BF20EAFA
:10065C00D37070BD94F0000F0FD101F00046400034
:10066C0041EB010111F4801F08BF013CF7D041EAB6
:10067C00060195F0000F18BF704703F000465200BA
:10068C0043EB030313F4801F08BF013DF7D043EA8B
:10069C000603704794EA0C0F0CEA135518BF95EA41
:1006AC000C0F0CD050EA410618BF52EA4306D1D1C8
:1006BC0081EA030101F000414FF0000070BD50EAE7
:1006CC00410606BF1046194652EA430619D094EA71
:1006DC000C0F02D150EA013613D195EA0C0F05D15B
:1006EC0052EA03361CBF104619460AD181EA0301AF
:1006FC0001F0004141F0FE4141F470014FF0000067
:10070C0070BD41F0FE4141F4780170BD70B54FF001
:10071C00FF0C4CF4E06C1CEA11541DBF1CEA135581
:10072C0094EA0C0F95EA0C0F00F0A7F8A4EB050463
:10073C0081EA030E52EA03354FEA013100F088805A
:10074C004FEA03334FF0805545EA131343EA126323
:10075C004FEA022245EA111545EA10654FEA0026D8
:10076C000EF000419D4208BF964244F1FD0404F591
:10077C00407402D25B084FEA3202B61A65EB0305ED
:10078C005B084FEA32024FF480104FF4002CB6EBAA
:10079C00020E75EB030E22BFB61A754640EA0C002A
:1007AC005B084FEA3202B6EB020E75EB030E22BF6A
:1007BC00B61A754640EA5C005B084FEA3202B6EBAB
:1007CC00020E75EB030E22BFB61A754640EA9C006A
:1007DC005B084FEA3202B6EB020E75EB030E22BF3A
:1007EC00B61A754640EADC0055EA060E18D04FEAF8
:1007FC00051545EA16754FEA06164FEAC30343EA98
:10080C0052734FEAC2025FEA1C1CC0D111F4801F64
:10081C000BD141EA00014FF000004FF0004CB6E75D
:10082C0011F4801F04BF01430020B4F1FD0C88BFFC
:10083C00BCF5E06F3FF6AFAEB5EB030C04BFB6EB07
:10084C00020C5FEA500C50F1000041EB045170BDFA
:10085C000EF0004E4EEA113114EB5C04C2BFD4EB27
:10086C000C0541EA045170BD41F480114FF0000EAB
:10087C00013C90E645EA060E8DE60CEA135594EA27
:10088C000C0F08BF95EA0C0F3FF43BAF94EA0C0F2A
:10089C000AD150EA01347FF434AF95EA0C0F7FF49F
:1008AC0025AF104619462CE795EA0C0F06D152EAF3
:1008BC0003353FF4FDAE1046194622E750EA4106D7
:1008CC0018BF52EA43067FF4C5AE50EA41047FF4E8
:1008DC000DAF52EA43057FF4EBAE12E74FEA41024B
:1008EC00B2F1E04324BFB3F5001CDCF1FE5C0DD982
:1008FC0001F0004C4FEAC0024CEA5070B2F1004FCC
:10090C0040EB830008BF20F00100704711F0804FCE
:10091C0021D113F13872BCBF01F00040704741F493
:10092C0080114FEA5252C2F11802C2F1200C10FA97
:10093C000CF320FA02F018BF40F001004FEAC1237B
:10094C004FEAD32303FA0CFC40EA0C0023FA02F31F
:10095C004FEA4303CCE77FEA625307D150EA0133F5
:10096C001EBF4FF0FE4040F44000704701F00040C5
:10097C0040F0FE4040F40000704700BF80F00040A3
:10098C0002E000BF81F0004142001FBF5FEA41035B
:10099C0092EA030F7FEA226C7FEA236C6AD04FEA5B
:1009AC001262D2EB1363C1BFD218414048404140A0
:1009BC00B8BF5B42192B88BF704710F0004F40F452
:1009CC00000020F07F4018BF404211F0004F41F46E
:1009DC00000121F07F4118BF494292EA030F3FD03A
:1009EC00A2F1010241FA03FC10EB0C00C3F120034D
:1009FC0001FA03F100F0004302D5494260EB4000DC
:100A0C00B0F5000F13D3B0F1807F06D340084FEA46
:100A1C00310102F10102FE2A51D2B1F1004F40EB3B
:100A2C00C25008BF20F0010040EA030070474900A3
:100A3C0040EB0000013A28BFB0F5000FEDD2B0FA40
:100A4C0080FCACF1080CB2EB0C0200FA0CF0AABF63
:100A5C0000EBC25052421843BCBFD0401843704701
:100A6C0092F0000F81F4000106BF80F40000013207
:100A7C00013BB5E74FEA41037FEA226C18BF7FEADE
:100A8C00236C21D092EA030F04D092F0000F08BF20
:100A9C000846704790EA010F1CBF0020704712F007
:100AAC007F4F04D1400028BF40F00040704712F146
:100ABC0000723CBF00F50000704700F0004343F0AB
:100ACC00FE4040F4000070477FEA226216BF0846E1
:100ADC007FEA23630146420206BF5FEA412390EAA4
:100AEC00010F40F4800070474FF0000304E000BF9A
:100AFC0010F0004348BF40425FEA000C08BF70474B
:100B0C0043F0964301464FF000001CE050EA01020E
:100B1C0008BF70474FF000030AE000BF50EA010223
:100B2C0008BF704711F0004302D5404261EB410110
:100B3C005FEA010C02BF84460146002043F0B64335
:100B4C0008BFA3F18053A3F50003BCFA8CF2083A5A
:100B5C00A3EBC25310DB01FA02FC634400FA02FC63
:100B6C00C2F12002BCF1004F20FA02F243EB02006A
:100B7C0008BF20F00100704702F1200201FA02FCCC
:100B8C00C2F1200250EA4C0021FA02F243EB0200BF
:100B9C0008BF20EADC7070474FF0FF0C1CEAD05203
:100BAC001EBF1CEAD15392EA0C0F93EA0C0F6FD0C4
:100BBC001A4480EA010C400218BF5FEA41211ED0A2
:100BCC004FF0006343EA501043EA5111A0FB01318E
:100BDC000CF00040B1F5000F3EBF490041EAD37163
:100BEC005B0040EA010062F17F02FD2A1DD8B3F1DF
:100BFC00004F40EBC25008BF20F00100704790F04E
:100C0C00000F0CF0004C08BF49024CEA502040EA9F
:100C1C0051207F3AC2BFD2F1FF0340EAC250704765
:100C2C0040F400004FF00003013A5DDC12F1190FA3
:100C3C00DCBF00F000407047C2F10002410021FA15
:100C4C0002F1C2F1200200FA02FC5FEA310040F12D
:100C5C00000053EA4C0308BF20EADC70704792F0A6
:100C6C00000F00F0004C02BF400010F4000F013ADE
:100C7C00F9D040EA0C0093F0000F01F0004C02BFD9
:100C8C00490011F4000F013BF9D041EA0C018FE748
:100C9C000CEAD15392EA0C0F18BF93EA0C0F0AD04E
:100CAC0030F0004C18BF31F0004CD8D180EA010074
:100CBC0000F00040704790F0000F17BF90F0004F0D
:100CCC00084691F0000F91F0004F14D092EA0C0FEF
:100CDC0001D142020FD193EA0C0F03D14B0218BF82
:100CEC00084608D180EA010000F0004040F0FE40C8
:100CFC0040F40000704740F0FE4040F44000704764
:100D0C004FF0FF0C1CEAD0521EBF1CEAD15392EAE2
:100D1C000C0F93EA0C0F69D0A2EB030280EA010CD2
:100D2C0049024FEA402037D04FF0805343EA11116B
:100D3C0043EA10130CF000408B4238BF5B0042F1C9
:100D4C007D024FF4000C8B4224BF5B1A40EA0C006E
:100D5C00B3EB510F24BFA3EB510340EA5C00B3EBA0
:100D6C00910F24BFA3EB910340EA9C00B3EBD10F8E
:100D7C0024BFA3EBD10340EADC001B0118BF5FEAE0
:100D8C001C1CE0D1FD2A3FF650AF8B4240EBC25009
:100D9C0008BF20F0010070470CF0004C4CEA5020CA
:100DAC007F32C2BFD2F1FF0340EAC250704740F419
:100DBC0000004FF00003013A37E792F0000F00F00B
:100DCC00004C02BF400010F4000F013AF9D040EA89
:100DDC000C0093F0000F01F0004C02BF490011F41D
:100DEC00000F013BF9D041EA0C0195E70CEAD15315
:100DFC0092EA0C0F08D142027FF47DAF93EA0C0FFC
:100E0C007FF470AF084676E793EA0C0F04D14B02DF
:100E1C003FF44CAF08466EE730F0004C18BF31F091
:100E2C00004CCAD130F000427FF45CAF31F000438B
:100E3C007FF43CAF5FE700BF80B586B002AF0346DE
:100E4C00FB71FB7923F00F03FB73FB791B01BB7365
:100E5C00FB7B43F00C03DBB23B72FB7B43F00803E0
:100E6C00DBB27B72BB7B43F00C03DBB2BB72BB7B94
:100E7C0043F00803DBB2FB7207F108026423009312
:100E8C0004234E21034801F067F900BF1037BD461B
:100E9C0080BD00BF7800002080B586B002AF03464D
:100EAC00FB71FB7923F00F03FB73FB791B01BB7305
:100EBC00FB7B43F00D03DBB23B72FB7B43F009037E
:100ECC00DBB27B72BB7B43F00D03DBB2BB72BB7B33
:100EDC0043F00903DBB2FB7207F1080264230093B1
:100EEC0004234E21034801F037F900BF1037BD46EB
:100EFC0080BD00BF7800002080B582B000AF80209C
:100F0C00FFF79AFF00237B6005E02020FFF7C4FF6A
:100F1C007B6801337B607B68452BF6DD00BF00BF2F
:100F2C000837BD4680BD80B582B000AF78603960AF
:100F3C007B68002B03D07B68012B05D009E03B6854
:100F4C0043F080033B6004E03B6843F0C0033B602C
:100F5C0000BF3B68DBB21846FFF76EFF00BF0837D7
:100F6C00BD4680BD80B500AF322000F0F5FC3020CE
:100F7C00FFF762FF052000F0EFFC3020FFF75CFF6D
:100F8C00012000F0E9FC3020FFF756FF0A2000F0AA
:100F9C00E3FC2020FFF750FF0A2000F0DDFC2820A6
:100FAC00FFF74AFF012000F0D7FC0820FFF744FFB1
:100FBC00012000F0D1FC0120FFF73EFF012000F0E2
:100FCC00CBFC012000F0C8FC0620FFF735FF012008
:100FDC0000F0C2FC0C20FFF72FFF00BF80BD80B5D6
:100FEC0082B000AF786006E07B685A1C7A601B7890
:100FFC001846FFF751FF7B681B78002BF4D100BF1C
:10100C0000BF0837BD4680BD80B483B000AF034637
:10101C00FB80084B1B6800225A6200BF054B1B6803
:10102C005A6AFB889A42F9D300BF00BF0C37BD4601
:10103C0080BC7047CC00002080B586B000AF002388
:10104C00FB753B1D00221A605A609A60DA604FF4FF
:10105C0080537B600123BB6002233B610023FB6058
:10106C003B1D19462C4800F07FFD00224FF48051A7
:10107C00294800F014FF142000F06EFC01224FF4FC
:10108C008051254800F00BFF1E20FFF7BDFF002309
:10109C00BB600123FB603B1D19461F4800F064FD3B
:1010AC002820FFF7B1FF4FF480511B4800F0E0FE01
:1010BC000346002B0CD15020FFF7A6FF4FF48051B4
:1010CC00154800F0D5FE0346002B01D00123FB751B
:1010DC0000F038FC0346114A136000F033FC034661
:1010EC000F4A136004E000F02DFC03460C4A136019
:1010FC004FF48051084800F0BBFE0346002B06D08D
:10110C00064B1B689A1C064B1B689A42EBD8FB7D5E
:10111C0018461837BD4680BD000C01401C0100204C
:10112C002001002080B582B000AF0023FB7166E087
:10113C0000F008FC0346364A136000F003FC03463B
:10114C00344A136004E000F0FDFB0346314A13609F
:10115C004FF48051304800F08BFE0346002B06D133
:10116C002B4B1B689A1C2B4B1B689A42EBD82820E4
:10117C00FFF74AFF4FF48051274800F079FE0346F1
:10118C00002B0ED1FB79C3F10703012202FA03F302
:10119C005BB2DB435AB297F9063013405BB2BB71BA
:1011AC000BE0FB79C3F10703012202FA03F35AB2F5
:1011BC0097F9063013435BB2BB7100F0C3FB0346D7
:1011CC00134A136000F0BEFB0346124A136004E09E
:1011DC0000F0B8FB03460F4A13604FF480510E48E1
:1011EC0000F046FE0346002B06D0094B1B689A1CE8
:1011FC00084B1B689A42EBD8FB790133FB71FB79E6
:10120C00072B95D9BB7918460837BD4680BD00BF62
:10121C001C01002020010020000C014098B500AFFB
:10122C0000F038FB00F026F900F0E8F900F068F95E
:10123C0000F094F9FFF796FE7B48FFF7D0FE4FF4D1
:10124C007A7000F089FB00210120FFF76CFE7748D3
:10125C00FFF7C5FE4FF4FA6000F07EFBFFF74CFE83
:10126C00734801F01DFFFFF7E7FE0346002B00F06B
:10127C00D580FFF757FF03461A466E4B1A70FFF7DF
:10128C0051FF03461A466C4B1A70FFF74BFF03468F
:10129C001A466A4B1A70FFF745FF03461A46684B0D
:1012AC001A70FFF73FFF03461A46664B1A70614BE4
:1012BC001B781A46604B1B781344604A127813440F
:1012CC005F4A127813445F4A1278934279D15B4B90
:1012DC001B781846FFF708FC0446594B1B78184638
:1012EC00FFF780F84FF00002574BFFF70FFA02465A
:1012FC000B4610461946FFF7F1FA034619462046ED
:10130C00FFF742FB03461A46504B1A604F4B1B68C3
:10131C004F491846FFF740FC03464E491846FFF765
:10132C00EFFC03464FF084411846FFF72DFB0346B4
:10133C001A46494B1A603F4B1B781846FFF7D4FBF3
:10134C0004463D4B1B781846FFF74CF84FF0000253
:10135C003D4BFFF7DBF902460B4610461946FFF7EB
:10136C00BDFA034619462046FFF70EFB03461A4604
:10137C003A4B1A60314B1B781A46314B1B78384963
:10138C00384802F0F5F800210020FFF7CCFD64206E
:10139C0000F0E2FA3348FFF722FE00210120FFF7AC
:1013AC00C2FD244B1B781A46234B1B782E492F4821
:1013BC0002F0DEF82D48FFF712FE4FF47A7000F0C1
:1013CC00CBFA1E4B1B781A2B0BD901224FF48061E0
:1013DC00274800F064FD00224FF40061244800F01F
:1013EC005EFD164B1B781A2B0CD801224FF40061B2
:1013FC001F4800F054FD00224FF480611C4800F09F
:10140C004EFD0BE001224FF40061194800F047FD3E
:10141C0001224FF48061164800F041FD4FF4FA6050
:10142C0000F09AFA1FE700BFF83E0008003F0008E2
:10143C00CC00002014010020150100201601002012
:10144C001701002018010020000024402401002076
:10145C00000010410000A040280100202C010020B9
:10146C000C3F0008300100201C3F000858010020F0
:10147C00000C014080B590B000AF07F11803282292
:10148C000021184602F094F83B1D00221A605A60A5
:10149C009A60DA601A610123BB614FF48033FB61FF
:1014AC0000233B620123BB6202237B634FF4803336
:1014BC00BB634FF4E013FB6307F11803184601F00C
:1014CC00A3F90346002B01D000F0C6F80F237B6074
:1014DC000223BB600023FB604FF480633B6100235D
:1014EC007B613B1D0221184601F010FC0346002BCA
:1014FC0001D000F0B1F800BF4037BD4680BD000000
:10150C0080B500AF124B134A1A60114B124A5A6045
:10151C000F4B00229A600E4B0022DA600C4B4FF4FA
:10152C0080421A610A4B00225A61094B00229A61CF
:10153C00074B0022DA61064B00221A62044800F0C5
:10154C00C7FC0346002B01D000F086F800BF80BD1D
:10155C007800002000540040A086010080B586B0C1
:10156C0000AF07F1080300221A605A609A60DA6033
:10157C003B4600221A605A601E4B1F4A1A601D4BD4
:10158C0047225A601B4B00229A601A4B4FF6FF728F
:10159C00DA60184B00221A61164B00225A61154B67
:1015AC0000229A61134801F02BFD0346002B01D059
:1015BC0000F052F84FF48053BB6007F10803194652
:1015CC000C4801F0B7FD0346002B01D000F044F8A5
:1015DC0000233B6000237B603B461946054801F025
:1015EC0069FF0346002B01D000F036F800BF183716
:1015FC00BD4680BDCC000020002C014080B485B0DD
:10160C0000AF144B9B69134A43F020039361114BB9
:10161C009B6903F02003FB60FB680E4B9B690D4A32
:10162C0043F0040393610B4B9B6903F00403BB6011
:10163C00BB68084B9B69074A43F008039361054B51
:10164C009B6903F008037B607B6800BF1437BD46C1
:10165C0080BC70470010024080B400AF72B600BF6F
:10166C00FEE7000080B485B000AF154B9B69144AAF
:10167C0043F001039361124B9B6903F00103BB60C0
:10168C00BB680F4BDB690E4A43F08053D3610C4BA4
:10169C00DB6903F080537B607B680A4B5B68FB6003
:1016AC00FB6823F0E063FB60FB6843F00073FB60B6
:1016BC00044AFB68536000BF1437BD4680BC7047BA
:1016CC00001002400000014080B588B000AF786087
:1016DC0007F1100300221A605A609A60DA607B6886
:1016EC001B68154A934223D1144B9B69134A43F050
:1016FC0008039361114B9B6903F00803FB60FB68C3
:10170C00C0233B6112237B610323FB6107F11003B0
:10171C0019460B4800F028FA084BDB69074A43F4DA
:10172C000013D361054BDB6903F40013BB60BB688A
:10173C0000BF2037BD4680BD005400400010024061
:10174C00000C014080B485B000AF78607B681B68EA
:10175C00094A93420BD1094B9B69084A43F4006335
:10176C009361064B9B6903F40063FB60FB6800BF4D
:10177C001437BD4680BC7047002C0140001002405D
:10178C0080B400AFFEE780B400AFFEE780B400AFDA
:10179C00FEE780B400AFFEE780B400AFFEE780B494
:1017AC0000AF00BFBD4680BC704780B400AF00BF27
:1017BC00BD4680BC704780B400AF00BFBD4680BC46
:1017CC00704780B500AF00F0ABF800BF80BD0000E3
:1017DC0080B586B000AF7860144A154BD31A7B6184
:1017EC007B693B61134B1B68002B02D1114B124AD6
:1017FC001A60104B1A687B6813443A699A4207D2F4
:10180C0001F0DEFE03460C221A604FF0FF3309E0B4
:10181C00084B1B68FB60074B1A687B681344054A2E
:10182C001360FB6818461837BD4680BD0050002079
:10183C000004000080010020D002002080B400AF22
:10184C0000BFBD4680BC7047FFF7F8FF0B480C4942
:10185C000C4A002302E0D458C4500433C4188C4200
:10186C00F9D3094A094C002301E013600432A24267
:10187C00FBD301F0ABFEFFF7D1FC7047000000205A
:10188C005C000020983F00085C000020D002002083
:10189C00FEE7000080B500AF084B1B68074A43F019
:1018AC0010031360032000F02BF90F2000F008F850
:1018BC00FFF7D8FE0023184680BD00BF0020024071
:1018CC0080B582B000AF7860124B1A68124B1B784F
:1018DC0019464FF47A73B3FBF1F3B2FBF3F31846EA
:1018EC0000F035F90346002B01D001230EE07B6894
:1018FC000F2B0AD8002279684FF0FF3000F00BF95B
:10190C00064A7B681360002300E001231846083761
:10191C00BD4680BD0000002008000020040000200F
:10192C0080B400AF054B1B781A46054B1B6813445B
:10193C00034A136000BFBD4680BC704708000020FE
:10194C008401002080B400AF024B1B681846BD46D2
:10195C0080BC70478401002080B584B000AF7860F3
:10196C00FFF7F0FFB8607B68FB60FB68B3F1FF3FEB
:10197C0005D00A4B1B781A46FB681344FB6000BF6A
:10198C00FFF7E0FF0246BB68D31AFA689A42F7D811
:10199C0000BF00BF1037BD4680BD00BF080000204F
:1019AC0080B485B000AF78607B6803F00703FB6000
:1019BC000C4BDB68BB60BA684FF6FF031340BB608F
:1019CC00FB681A02BB68134343F0BF6343F4003354
:1019DC00BB60044ABB68D36000BF1437BD4680BCF3
:1019EC00704700BF00ED00E080B400AF044BDB6833
:1019FC001B0A03F007031846BD4680BC704700BFA6
:101A0C0000ED00E080B483B000AF03463960FB7199
:101A1C0097F90730002B0ADB3B68DAB20C4997F9CF
:101A2C0007301201D2B20B4483F800230AE03B6862
:101A3C00DAB20849FB7903F00F03043B1201D2B26E
:101A4C000B441A7600BF0C37BD4680BC704700BFF4
:101A5C0000E100E000ED00E080B489B000AFF86078
:101A6C00B9607A60FB6803F00703FB61FB69C3F1A3
:101A7C000703042B28BF0423BB61FB690433062B2B
:101A8C0002D9FB69033B00E000237B614FF0FF327E
:101A9C00BB6902FA03F3DA43BB681A407B699A40CC
:101AAC004FF0FF317B6901FA03F3D9437B680B409C
:101ABC00134318462437BD4680BC704780B582B0AE
:101ACC0000AF78607B68013BB3F1807F01D30123C9
:101ADC000FE00A4A7B68013B53600F214FF0FF3047
:101AEC00FFF790FF054B00229A60044B07221A6007
:101AFC00002318460837BD4680BD00BF10E000E04B
:101B0C0080B582B000AF78607868FFF749FF00BFFE
:101B1C000837BD4680BD80B586B000AF0346B960BE
:101B2C007A60FB7300237B61FFF75EFF78617A6854
:101B3C00B9687869FFF790FF024697F90F301146A4
:101B4C001846FFF75FFF00BF1837BD4680BD80B554
:101B5C0082B000AF78607868FFF7B0FF0346184694
:101B6C000837BD4680BD000080B48BB000AF7860F4
:101B7C00396000237B6200233B6269E101227B6AAE
:101B8C0002FA03F3FB613B681B68FA691340BB6103
:101B9C00BA69FB699A4240F058813B685B689A4A83
:101BAC0093425ED0984A934275D8984A934258D043
:101BBC00964A93426FD8964A934252D0944A934293
:101BCC0069D8944A93424CD0924A934263D8924A31
:101BDC00934246D0904A93425DD8122B2AD8122BAE
:101BEC0059D801A252F823F06F1C0008491C0008B8
:101BFC005B1C00089D1C0008A31C0008A31C00080B
:101C0C00A31C0008A31C0008A31C0008A31C0008AC
:101C1C00A31C0008A31C0008A31C0008A31C00089C
:101C2C00A31C0008A31C0008A31C0008511C0008DE
:101C3C00651C0008794A934213D02CE03B68DB68A2
:101C4C003B6229E03B68DB6804333B6224E03B6881
:101C5C00DB6808333B621FE03B68DB680C333B629C
:101C6C001AE03B689B68002B02D104233B6213E013
:101C7C003B689B68012B05D108233B627B68FA69A2
:101C8C001A6109E008233B627B68FA695A6103E038
:101C9C0000233B6200E000BFBB69FF2B01D87B68CF
:101CAC0001E07B6804337B61BB69FF2B02D87B6A44
:101CBC009B0002E07B6A083B9B003B617B691A68D6
:101CCC000F213B6901FA03F3DB431A40396A3B6984
:101CDC0001FA03F31A437B691A603B685B6803F0F3
:101CEC008053002B00F0B1804D4B9B694C4A43F064
:101CFC00010393614A4B9B6903F00103BB60BB6812
:101D0C00484A7B6A9B08023352F82330FB607B6A9B
:101D1C0003F003039B000F2202FA03F3DB43FA6880
:101D2C001340FB607B68404A934213D07B683F4A68
:101D3C0093420DD07B683E4A934207D07B683D4A64
:101D4C00934201D1032306E0042304E0022302E0C2
:101D5C00012300E000237A6A02F003029200934010
:101D6C00FA681343FB602F497B6A9B080233FA68BD
:101D7C0041F823203B685B6803F48013002B06D0EA
:101D8C002D4B9A682C49BB6913438B6006E02A4B98
:101D9C009A68BB69DB43284913408B603B685B68DE
:101DAC0003F40013002B06D0234BDA682249BB69DD
:101DBC001343CB6006E0204BDA68BB69DB431E495A
:101DCC001340CB603B685B6803F40033002B06D0F8
:101DDC00194B5A681849BB6913434B6006E0164B04
:101DEC005A68BB69DB43144913404B603B685B6822
:101DFC0003F48033002B21D00F4B1A680E49BB69BA
:101E0C0013430B6021E000BF0000321000003110C2
:101E1C000000221000002110000012100000111010
:101E2C00001002400000014000080140000C01407D
:101E3C000010014000140140000401400B4B1A68D3
:101E4C00BB69DB43094913400B607B6A01337B623E
:101E5C003B681A687B6A22FA03F3002B7FF48EAE80
:101E6C0000BF00BF2C37BD4680BC7047000401404A
:101E7C0080B485B000AF78600B467B807B689A6835
:101E8C007B881340002B02D00123FB7301E000235D
:101E9C00FB73FB7B18461437BD4680BC704780B47F
:101EAC0083B000AF78600B467B8013467B707B78E9
:101EBC00002B03D07A887B681A6103E07B881A04B4
:101ECC007B681A6100BF0C37BD4680BC70470000B0
:101EDC0080B584B000AF78607B68002B01D1012302
:101EEC002BE17B6893F83D30DBB2002B06D17B688D
:101EFC00002283F83C207868FFF7E6FB7B682422FD
:101F0C0083F83D207B681B681A687B681B6822F08D
:101F1C0001021A607B681B681A687B681B6842F4B4
:101F2C0000421A607B681B681A687B681B6822F485
:101F3C0000421A6001F032F8F8607B685B68814AF5
:101F4C00934207D8FB68804A934294BF0123002335
:101F5C00DBB206E0FB687D4A934294BF0123002369
:101F6C00DBB2002B01D00123E7E0FB68784AA2FB2F
:101F7C0003239B0CBB607B681B685B6823F03F01F1
:101F8C007B681B68BA680A435A607B681B681B6ACB
:101F9C0023F03F017B685B686A4A934202D8BB68B6
:101FAC00013309E0BB684FF4967202FB03F3694AF4
:101FBC00A2FB03239B0901337A6812680B4313625B
:101FCC007B681B68DB6923F44F4222F0FF027B68BD
:101FDC005B685C498B4219D8FB68591E7B685B684F
:101FEC005B00B1FBF3F3591C40F6FC730B40002B68
:101FFC000AD0FB68591E7B685B685B00B1FBF3F38E
:10200C000133C3F30B0351E004234FE07B689B685F
:10201C00002B11D1FB68581E7B6859680B465B007E
:10202C000B44B0FBF3F30133C3F30B03002B0CBFD6
:10203C0001230023DBB212E0FB68581E7B68596851
:10204C000B469B000B4499000B44B0FBF3F301339C
:10205C00C3F30B03002B0CBF01230023DBB2002BBB
:10206C0001D0012322E07B689B68002B0ED1FB681A
:10207C00581E7B6859680B465B000B44B0FBF3F3AE
:10208C000133C3F30B0343F400430FE0FB68581E0A
:10209C007B6859680B469B000B4499000B44B0FBC2
:1020AC00F3F30133C3F30B0343F44043796809683A
:1020BC001343CB617B681B681B6823F0C0017B68F2
:1020CC00DA697B681B6A1A437B681B680A431A60CF
:1020DC007B681B689B6823F4034323F0FF037A6837
:1020EC0011697A68D26811437A6812680B4393605D
:1020FC007B681B68DB6823F0FF017B685A697B688F
:10210C009B691A437B681B680A43DA607B681B680F
:10211C001A687B681B6842F001021A607B68002217
:10212C001A647B68202283F83D207B6800221A63A6
:10213C007B68002283F83E20002318461037BD46EA
:10214C0080BD00BFA08601007F841E00FF083D00FB
:10215C0083DE1B43D34D621080B588B002AFF860AC
:10216C007A601A460B467B8113463B81FFF7EAFBEC
:10217C007861FB6893F83D30DBB2202B40F0E080B7
:10218C007B690093192301227049F86800F064F907
:10219C000346002B01D00223D3E0FB6893F83C30BC
:1021AC00012B01D10223CCE0FB68012283F83C20F7
:1021BC00FB681B681B6803F00103012B07D0FB684D
:1021CC001B681A68FB681B6842F001021A60FB6806
:1021DC001B681A68FB681B6822F400621A60FB68B3
:1021EC00212283F83D20FB68102283F83E20FB68F7
:1021FC0000221A64FB687A685A62FB683A895A852D
:10220C00FB685B8D9AB2FB681A85FB68504ADA62F0
:10221C0079897B693A6AF86800F09CF80346002BD0
:10222C0001D001238DE000233B61FB681B685B69D7
:10223C003B61FB681B689B693B613B6966E07A69A3
:10224C00396AF86800F022FA0346002B0DD0FB68BF
:10225C001B6C042B07D1FB681B681A68FB681B6896
:10226C0042F400721A6001236BE0FB685B6A1A7817
:10227C00FB681B681A61FB685B6A5A1CFB685A6234
:10228C00FB685B8D9BB2013B9AB2FB685A85FB687D
:10229C001B8D013B9AB2FB681A85FB681B685B6956
:1022AC0003F00403042B1BD1FB681B8D002B17D0F0
:1022BC00FB685B6A1A78FB681B681A61FB685B6ACF
:1022CC005A1CFB685A62FB685B8D9BB2013B9AB24D
:1022DC00FB685A85FB681B8D013B9AB2FB681A851B
:1022EC007A69396AF86800F019FA0346002B0DD0A8
:1022FC00FB681B6C042B07D1FB681B681A68FB6816
:10230C001B6842F400721A6001231AE0FB681B8DF3
:10231C00002B94D1FB681B681A68FB681B6842F49D
:10232C0000721A60FB68202283F83D20FB680022B3
:10233C0083F83E20FB68002283F83C20002300E059
:10234C00022318461837BD4680BD00BF020010009E
:10235C000000FFFF80B588B002AFF8607A603B6088
:10236C000B467B81FB68DB6A7B617B69082B06D0A3
:10237C007B69012B03D07B6913F5803F08D1FB6887
:10238C001B681A68FB681B6842F480721A600BE0C9
:10239C00FB681B6B122B07D1FB681B681A68FB6868
:1023AC001B6842F480721A603B6800937B680022C1
:1023BC004FF00111F86800F04FF80346002B0DD0D8
:1023CC00FB681B681B6803F48073B3F5807F03D133
:1023DC00FB684FF400721A64032335E0FB681B6939
:1023EC00B3F5804F08D17B89DBB21A46FB681B68BA
:1023FC0002F0FE021A611BE07B89DB11DBB203F0F9
:10240C000603DBB263F00F03DAB2FB681B681A61D8
:10241C003B687A680E49F86800F098F80346002B80
:10242C0001D0012310E07B89DAB2FB681B681A61CA
:10243C003B687A680749F86800F088F80346002B77
:10244C0001D0012300E0002318461837BD4680BD9B
:10245C00080001000200010080B584B000AFF860F4
:10246C00B9603B601346FB7148E03B68B3F1FF3F3A
:10247C0044D0FFF767FA0246BB69D31A3A689A420E
:10248C0002D33B68002B39D1BB681B0CDBB2012B90
:10249C000DD1FB681B685B69DA43BB6813409BB2C8
:1024AC00002B0CBF01230023DBB21A460CE0FB68A7
:1024BC001B689B69DA43BB6813409BB2002B0CBFB3
:1024CC0001230023DBB21A46FB799A4216D1FB6832
:1024DC0000221A63FB68202283F83D20FB6800224F
:1024EC0083F83E20FB681B6C43F02002FB681A64E7
:1024FC00FB68002283F83C20012323E0BB681B0C03
:10250C00DBB2012B0DD1FB681B685B69DA43BB683E
:10251C0013409BB2002B0CBF01230023DBB21A46E5
:10252C000CE0FB681B689B69DA43BB6813409BB2E9
:10253C00002B0CBF01230023DBB21A46FB799A4215
:10254C0093D0002318461037BD4680BD80B584B0AB
:10255C0000AFF860B9607A603B6071E0FB681B68A3
:10256C005B6903F48063B3F5806F23D1FB681B6850
:10257C001A68FB681B6842F400721A60FB681B68DF
:10258C006FF480625A61FB6800221A63FB68202298
:10259C0083F83D20FB68002283F83E20FB681B6C0F
:1025AC0043F00402FB681A64FB68002283F83C20A9
:1025BC00012367E07B68B3F1FF3F41D0FFF7C2F91D
:1025CC0002463B68D31A7A689A4202D37B68002B86
:1025DC0036D1BB681B0CDBB2012B0CD1FB681B6822
:1025EC005B69DA43BB6813409BB2002B14BF012319
:1025FC000023DBB20BE0FB681B689B69DA43BB680A
:10260C0013409BB2002B14BF01230023DBB2002B21
:10261C0016D0FB6800221A63FB68202283F83D2049
:10262C00FB68002283F83E20FB681B6C43F0200201
:10263C00FB681A64FB68002283F83C20012321E02C
:10264C00BB681B0CDBB2012B0CD1FB681B685B69F4
:10265C00DA43BB6813409BB2002B14BF0123002349
:10266C00DBB20BE0FB681B689B69DA43BB68134069
:10267C009BB2002B14BF01230023DBB2002B7FF491
:10268C006DAF002318461037BD4680BD80B584B0B1
:10269C0000AFF860B9607A6034E0F86800F086F852
:1026AC000346002B01D0012334E0BB68B3F1FF3F9C
:1026BC0028D0FFF747F902467B68D31ABA689A42CA
:1026CC0002D3BB68002B1DD1FB681B685B6903F050
:1026DC008003802B16D0FB6800221A63FB68202233
:1026EC0083F83D20FB68002283F83E20FB681B6CBE
:1026FC0043F02002FB681A64FB68002283F83C203C
:10270C00012307E0FB681B685B6903F08003802BE7
:10271C00C3D1002318461037BD4680BD80B584B0A8
:10272C0000AFF860B9607A6034E0F86800F03EF809
:10273C000346002B01D0012334E0BB68B3F1FF3F0B
:10274C0028D0FFF7FFF802467B68D31ABA689A4282
:10275C0002D3BB68002B1DD1FB681B685B6903F0BF
:10276C000403042B16D0FB6800221A63FB6820229A
:10277C0083F83D20FB68002283F83E20FB681B6C2D
:10278C0043F02002FB681A64FB68002283F83C20AB
:10279C00012307E0FB681B685B6903F00403042B4F
:1027AC00C3D1002318461037BD4680BD80B483B01A
:1027BC0000AF78607B681B685B6903F48063B3F5DA
:1027CC00806F1BD17B681B686FF480625A617B68D9
:1027DC0000221A637B68202283F83D207B6800224C
:1027EC0083F83E207B681B6C43F004027B681A6400
:1027FC007B68002283F83C20012300E0002318466C
:10280C000C37BD4680BC704780B586B000AF786091
:10281C007B68002B01D1012372E27B681B6803F0FB
:10282C000103002B00F08780924B5B6803F00C03D4
:10283C00042B0CD08F4B5B6803F00C03082B12D1CC
:10284C008C4B5B6803F48033B3F5803F0BD1894B21
:10285C001B6803F40033002B6CD07B685B68002B87
:10286C0068D101234CE27B685B68B3F5803F06D1ED
:10287C00804B1B687F4A43F4803313602EE07B68E7
:10288C005B68002B0CD17B4B1B687A4A23F480339A
:10289C001360784B1B68774A23F4802313601DE088
:1028AC007B685B68B3F5A02F0CD1724B1B68714A27
:1028BC0043F4802313606F4B1B686E4A43F48033E0
:1028CC0013600BE06B4B1B686A4A23F48033136074
:1028DC00684B1B68674A23F4802313607B685B6832
:1028EC00002B13D0FFF72EF8386108E0FFF72AF819
:1028FC0002463B69D31A642B01D9032300E25D4BDA
:10290C001B6803F40033002BF0D014E0FFF71AF827
:10291C00386108E0FFF716F802463B69D31A642BBE
:10292C0001D90323ECE1534B1B6803F40033002B58
:10293C00F0D100E000BF7B681B6803F00203002BA2
:10294C0063D04C4B5B6803F00C03002B0BD0494B52
:10295C005B6803F00C03082B1CD1464B5B6803F43B
:10296C008033002B16D1434B1B6803F00203002B62
:10297C0005D07B681B69012B01D00123C0E13D4BC5
:10298C001B6823F0F8027B685B69DB003949134351
:10299C000B603AE07B681B69002B20D0364B012280
:1029AC001A60FEF7CFFF386108E0FEF7CBFF024656
:1029BC003B69D31A022B01D90323A1E12D4B1B68D0
:1029CC0003F00203002BF0D02A4B1B6823F0F80213
:1029DC007B685B69DB00274913430B6015E0264BD2
:1029EC0000221A60FEF7AEFF386108E0FEF7AAFF7E
:1029FC0002463B69D31A022B01D9032380E11D4BFC
:102A0C001B6803F00203002BF0D17B681B6803F0FA
:102A1C000803002B3AD07B689B69002B19D0174B0D
:102A2C0001221A60FEF78EFF386108E0FEF78AFF7C
:102A3C0002463B69D31A022B01D9032360E10D4BEB
:102A4C005B6A03F00203002BF0D0012000F0BAFA0D
:102A5C001CE00A4B00221A60FEF774FF38610FE08D
:102A6C00FEF770FF02463B69D31A022B08D90323E9
:102A7C0046E100BF00100240000042428004424286
:102A8C00924B5B6A03F00203002BE9D17B681B6855
:102A9C0003F00403002B00F0A6800023FB758B4B86
:102AAC00DB6903F08053002B0DD1884BDB69874A1F
:102ABC0043F08053D361854BDB6903F08053BB60DB
:102ACC00BB680123FB75824B1B6803F48073002BDE
:102ADC0018D17F4B1B687E4A43F480731360FEF75A
:102AEC0031FF386108E0FEF72DFF02463B69D31A2F
:102AFC00642B01D9032303E1754B1B6803F480732A
:102B0C00002BF0D07B68DB68012B06D16F4B1B6A66
:102B1C006E4A43F0010313622DE07B68DB68002BE7
:102B2C000CD16A4B1B6A694A23F001031362674B91
:102B3C001B6A664A23F0040313621CE07B68DB68A3
:102B4C00052B0CD1614B1B6A604A43F004031362E2
:102B5C005E4B1B6A5D4A43F0010313620BE05B4B57
:102B6C001B6A5A4A23F001031362584B1B6A574ADB
:102B7C0023F0040313627B68DB68002B15D0FEF78F
:102B8C00E1FE38610AE0FEF7DDFE02463B69D31A2E
:102B9C0041F28832934201D90323B1E04B4B1B6ABB
:102BAC0003F00203002BEED014E0FEF7CBFE3861ED
:102BBC000AE0FEF7C7FE02463B69D31A41F288329F
:102BCC00934201D903239BE0404B1B6A03F00203A1
:102BDC00002BEED1FB7D012B05D13C4BDB693B4A35
:102BEC0023F08053D3617B68DB69002B00F0878076
:102BFC00364B5B6803F00C03082B61D07B68DB69F8
:102C0C00022B46D1334B00221A60FEF79BFE386133
:102C1C0008E0FEF797FE02463B69D31A022B01D956
:102C2C0003236DE0294B1B6803F00073002BF0D1DC
:102C3C007B681B6AB3F5803F08D1244B5B6823F497
:102C4C0000327B689B68214913434B601F4B5B68C8
:102C5C0023F474127B68196A7B685B6A0B431B490B
:102C6C0013434B601B4B01221A60FEF76BFE38615D
:102C7C0008E0FEF767FE02463B69D31A022B01D926
:102C8C0003233DE0114B1B6803F00073002BF0D0C5
:102C9C0035E0104B00221A60FEF754FE386108E054
:102CAC00FEF750FE02463B69D31A022B01D90323CF
:102CBC0026E0064B1B6803F00073002BF0D11EE0DE
:102CCC007B68DB69012B07D1012319E0001002405E
:102CDC0000700040600042420B4B5B68FB60FB687D
:102CEC0003F480327B681B6A9A4206D1FB6803F4BA
:102CFC0070127B685B6A9A4201D0012300E00023CA
:102D0C0018461837BD4680BD0010024080B584B00F
:102D1C0000AF786039607B68002B01D10123D0E0D3
:102D2C006A4B1B6803F007033A689A4210D9674B49
:102D3C001B6823F0070265493B6813430B60634B28
:102D4C001B6803F007033A689A4201D00123B8E0EC
:102D5C007B681B6803F00203002B20D07B681B6888
:102D6C0003F00403002B05D0594B5B68584A43F41D
:102D7C00E06353607B681B6803F00803002B05D0ED
:102D8C00534B5B68524A43F460535360504B5B683F
:102D9C0023F0F0027B689B684D4913434B607B68C2
:102DAC001B6803F00103002B40D07B685B68012B90
:102DBC0007D1474B1B6803F40033002B15D10123BB
:102DCC007FE07B685B68022B07D1414B1B6803F0EB
:102DDC000073002B09D1012373E03D4B1B6803F0FA
:102DEC000203002B01D101236BE0394B5B6823F00C
:102DFC0003027B685B68364913434B60FEF7A2FD08
:102E0C00F8600AE0FEF79EFD0246FB68D31A41F219
:102E1C008832934201D9032353E02D4B5B6803F0B6
:102E2C000C027B685B689B009A42EBD1274B1B68BA
:102E3C0003F007033A689A4210D2244B1B6823F024
:102E4C00070222493B6813430B60204B1B6803F0BD
:102E5C0007033A689A4201D0012332E07B681B6871
:102E6C0003F00403002B08D0194B5B6823F4E062D9
:102E7C007B68DB68164913434B607B681B6803F067
:102E8C000803002B09D0124B5B6823F460527B685B
:102E9C001B69DB000E4913434B6000F021F802461E
:102EAC000B4B5B681B0903F00F030A49CB5C22FA3E
:102EBC0003F3094A1360094B1B681846FEF700FD23
:102ECC00002318461037BD4680BD00BF00200240CD
:102EDC0000100240303F00080000002004000020D9
:102EEC0080B487B000AF0023FB600023BB600023DD
:102EFC007B6100237B6000233B611E4B5B68FB60A6
:102F0C00FB6803F00C03042B02D0082B03D027E042
:102F1C00194B3B6127E0FB689B0C03F00F03174A2E
:102F2C00D35C7B60FB6803F48033002B10D0114B17
:102F3C005B685B0C03F00103114AD35CBB607B68DC
:102F4C000D4A03FB02F2BB68B2FBF3F37B6104E0B6
:102F5C007B680C4A02FB03F37B617B693B6102E0FB
:102F6C00054B3B6100BF3B6918461C37BD4680BC16
:102F7C00704700BF0010024000127A00483F000862
:102F8C00583F000800093D0080B400AF024B1B689D
:102F9C001846BD4680BC70470000002080B500AFCD
:102FAC00FFF7F2FF0246054B5B681B0A03F00703B1
:102FBC000349CB5C22FA03F3184680BD0010024093
:102FCC00403F000880B485B000AF78600A4B1B68A6
:102FDC000A4AA2FB03235B0A7A6802FB03F3FB6039
:102FEC0000BFFB685A1EFA60002BF9D100BF00BF6E
:102FFC001437BD4680BC704700000020D34D6210D2
:10300C0080B582B000AF78607B68002B01D10123C2
:10301C0041E07B6893F83D30DBB2002B06D17B6836
:10302C00002283F83C207868FEF78CFB7B68022238
:10303C0083F83D207B681A687B6804331946104678
:10304C0000F040F97B68012283F846207B6801225E
:10305C0083F83E207B68012283F83F207B680122A5
:10306C0083F840207B68012283F841207B68012291
:10307C0083F842207B68012283F843207B6801227D
:10308C0083F844207B68012283F845207B68012269
:10309C0083F83D20002318460837BD4680BD00004C
:1030AC0080B485B000AF78607B6893F83D30DBB2BC
:1030BC00012B01D0012332E07B68022283F83D20F2
:1030CC007B681B68184A93420ED07B681B68B3F16F
:1030DC00804F09D07B681B68144A934204D07B68EC
:1030EC001B68134A934211D17B681B689B6803F0E1
:1030FC000703FB60FB68062B10D07B681B681A6803
:10310C007B681B6842F001021A6007E07B681B6851
:10311C001A687B681B6842F001021A60002318468B
:10312C001437BD4680BC7047002C014000040040A1
:10313C000008004080B584B000AF7860396000238F
:10314C00FB737B6893F83C30012B01D10223B4E074
:10315C007B68012283F83C207B68022283F83D20A7
:10316C007B681B689B68BB60BB6823F07703BB6004
:10317C00BB6823F47F43BB607B681B68BA689A60AA
:10318C003B681B68B3F5005F3ED0B3F5005F00F2FF
:10319C008780B3F5805F00F08680B3F5805F7FD8C1
:1031AC00702B1AD0702B7BD8602B50D0602B77D81B
:1031BC00502B3CD0502B73D8402B58D0402B6FD871
:1031CC00302B64D0302B6BD8202B60D0202B67D8C1
:1031DC00002B5CD0102B5AD062E07B6818683B68DF
:1031EC0099683B685A683B68DB6800F044F97B6877
:1031FC001B689B68BB60BB6843F07703BB607B6854
:10320C001B68BA689A604FE07B6818683B689968DD
:10321C003B685A683B68DB6800F02DF97B681B68DB
:10322C009A687B681B6842F480429A603CE07B6839
:10323C0018683B6859683B68DB681A4600F0A4F8CC
:10324C007B681B685021184600F0FBF82CE07B686B
:10325C0018683B6859683B68DB681A4600F0C2F88E
:10326C007B681B686021184600F0EBF81CE07B685B
:10327C0018683B6859683B68DB681A4600F084F8AC
:10328C007B681B684021184600F0DBF80CE07B687B
:10329C001A683B681B681946104600F0D2F803E028
:1032AC000123FB7300E000BF7B68012283F83D2003
:1032BC007B68002283F83C20FB7B18461037BD4608
:1032CC0080BD000080B485B000AF786039607B6849
:1032DC001B68FB607B68294A93420BD07B68B3F177
:1032EC00804F07D07B68264A934203D07B68254ADF
:1032FC00934208D1FB6823F07003FB603B685B686A
:10330C00FA681343FB607B681C4A93420BD07B68C2
:10331C00B3F1804F07D07B68194A934203D07B6886
:10332C00184A934208D1FB6823F44073FB603B6856
:10333C00DB68FA681343FB60FB6823F080023B6890
:10334C005B691343FB607B68FA681A603B689A6898
:10335C007B68DA623B681A687B689A627B68074A0A
:10336C00934203D13B681A697B681A637B6801221C
:10337C005A6100BF1437BD4680BC7047002C014019
:10338C00000400400008004080B487B000AFF86033
:10339C00B9607A60FB681B6A7B61FB681B6A23F06F
:1033AC000102FB681A62FB689B693B613B6923F075
:1033BC00F0033B617B681B013A6913433B617B69FA
:1033CC0023F00A037B617A69BB6813437B61FB685A
:1033DC003A699A61FB687A691A6200BF1C37BD466C
:1033EC0080BC704780B487B000AFF860B9607A6079
:1033FC00FB681B6A7B61FB681B6A23F01002FB688D
:10340C001A62FB689B693B613B6923F470433B6127
:10341C007B681B033A6913433B617B6923F0A00370
:10342C007B61BB681B017A6913437B61FB683A695A
:10343C009A61FB687A691A6200BF1C37BD4680BC72
:10344C00704780B485B000AF786039607B689B684A
:10345C00FB60FB6823F07003FB603A68FB68134366
:10346C0043F00703FB607B68FA689A6000BF14376F
:10347C00BD4680BC704780B487B000AFF860B960BF
:10348C007A603B60FB689B687B617B6923F47F43BC
:10349C007B613B681A027B681A43BB6813437A69E9
:1034AC0013437B61FB687A699A6000BF1C37BD4689
:1034BC0080BC704780B485B000AF786039607B68A1
:1034CC0093F83C30012B01D1022346E07B680122AA
:1034DC0083F83C207B68022283F83D207B681B68C4
:1034EC005B68FB607B681B689B68BB60FB6823F0B8
:1034FC007003FB603B681B68FA681343FB607B68D6
:10350C001B68FA685A607B681B68164A93420ED097
:10351C007B681B68B3F1804F09D07B681B68124A2B
:10352C00934204D07B681B68104A93420CD1BB6851
:10353C0023F08003BB603B685B68BA681343BB60D5
:10354C007B681B68BA689A607B68012283F83D200F
:10355C007B68002283F83C20002318461437BD46B4
:10356C0080BC7047002C0140000400400008004063
:10357C000EB46FF0004100B59CB01DAB02900690EC
:10358C00079104910848094953F8042B05910068E8
:10359C0002A9019300F08EF90022029B1A701CB054
:1035AC005DF804EB03B07047580000200802FFFFE1
:1035BC0003460244934200D1704703F8011BF9E71C
:1035CC00014B1868704700BF5800002070B50026EA
:1035DC000C4D0D4C641BA410A64209D100F07AFCD2
:1035EC0000260A4D0A4C641BA410A64205D170BDDE
:1035FC0055F8043B98470136EEE755F8043B9847DD
:10360C000136F2E7903F0008903F0008903F000819
:10361C00943F00087047704738B50546002940D0E4
:10362C0051F8043C0C1F002BB8BFE41800F0DCF878
:10363C001C4A136833B9636014602846BDE83840EF
:10364C0000F0D8B8A34208D9206821188B4201BFDA
:10365C0019685B6809182160EDE71A465B680BB1C5
:10366C00A342FAD911685018A0420BD1206801442A
:10367C00501883421160E0D118685B6808441060F0
:10368C005360DAE702D90C232B60D6E720682118A7
:10369C008B4201BF19685B68091821606360546034
:1036AC00CBE738BDC802002070B50E4E0C46316811
:1036BC00054611B900F0AAFB30602146284600F0FF
:1036CC00A5FB431C0AD0C41C24F00304A04207D061
:1036DC00211A284600F09AFB013001D14FF0FF343B
:1036EC00204670BDCC0200202DE9F843CD1C25F0FE
:1036FC00030508350C2D38BF0C25002D074601DBC2
:10370C00A94205D90C2300263B603046BDE8F8835E
:10371C00DFF8D08000F068F8D8F800301C465CBBAD
:10372C0029463846FFF7C0FF431C044655D1D8F84C
:10373C0000402646002E45D1002C48D02368314647
:10374C00384604EB030900F061FB81453FD1216849
:10375C0038466D1A2946FFF7A7FF013037D023688A
:10376C002B442360D8F80030002B38D05A68A24282
:10377C002BD100225A600FE02268521B1FD40B2A57
:10378C0017D96119A342256018BF5960636808BF37
:10379C00C8F8001062514B60384604F10B0600F07B
:1037AC0029F826F00706231DF21AAED09B1BA35056
:1037BC00ABE7A3426268DDD1C8F80020ECE72346F2
:1037CC006468ACE734467668B4E71346CCE70C2360
:1037DC0038463B6000F00EF897E72560DCE75B604D
:1037EC00FFDE00BFC80200200148FFF713BF00BF77
:1037FC00C40200200148FFF70EBF00BFC402002026
:10380C002DE9F0471F468E688246BE420C46904614
:10381C000B682CD88A8912F4906F26D065690969D7
:10382C0005EB4505A3EB010905EBD5757B1C4B445A
:10383C006D109D4238BF1D46530527D52946FFF70D
:10384C0053FF064660B34A46216900F0FDFAA3898E
:10385C0023F4906343F08003A38126614E442660D9
:10386C003E466561A5EB0905A560BE4200D93E4602
:10387C0032464146206800F0AFFA0020A3689B1B3B
:10388C00A360236833442360BDE8F0872A4600F028
:10389C00E9FA06460028E0D150462169FFF7BCFE44
:1038AC000C23CAF80030A3894FF0FF3043F04003DB
:1038BC00A381E9E72DE9F04F98468B8907461B0653
:1038CC000D4614469DB00ED50B6963B94021FFF728
:1038DC000BFF2860286120B90C233B604FF0FF30B0
:1038EC00D0E040236B610023099320238DF829300D
:1038FC0030234FF00109CDF80C80DFF8A0818DF852
:10390C002A3023469A4613F8012B0AB1252AF9D1FD
:10391C00BAEB040B0BD05B46224629463846FFF720
:10392C006FFF013000F0A980099A5A4409929AF865
:10393C000030002B00F0A18000234FF0FF32CDE9C6
:10394C0005230AF1010A049307938DF853301A9357
:10395C005446052214F8011B504800F067FA049AEB
:10396C00D8B9D00644BF20238DF85330110744BF7B
:10397C002B238DF853309AF800302A2B15D054464F
:10398C0000204FF00A0C079A214611F8013B303BFE
:10399C00092B4DD9B0B1079214E0A0EB080309FA3A
:1039AC0003F31343A2460493D2E7039B191D1B6830
:1039BC000391002BBBBF5B4242F0020207930793BB
:1039CC00B8BF049223782E2B0CD163782A2B34D1D8
:1039DC00039B02341A1D1B680392002BB8BF4FF0D7
:1039EC00FF330593DFF8B8A003225046217800F08E
:1039FC001DFA38B14022049BA0EB0A00824013430D
:103A0C000134049314F8011B062226488DF8281063
:103A1C0000F00CFA002838D0234B1BBB039B073358
:103A2C0023F0070308330393099B3344099368E796
:103A3C000C4601200CFB0232A6E700234FF00A0CC7
:103A4C00194601340593204610F8012B303A092A07
:103A5C0003D9002BC6D00591C4E7044601230CFB07
:103A6C000121F0E703AB00932A4638460F4B04A91B
:103A7C00AFF30080421C0646D6D1AB895B063FF5FE
:103A8C002DAF09981DB0BDE8F08F03AB00932A460B
:103A9C003846064B04A900F07DF8EBE75A3F0008C6
:103AAC00603F0008643F0008000000000D3800086B
:103ABC002DE9F047164699468A680B6907469342EA
:103ACC00B8BF1346336091F843200C46DDF82080D4
:103ADC000AB1013333602368990642BF336802335D
:103AEC003360256815F0060506D104F1190AE36860
:103AFC0032689B1AAB422BDC94F84320131E2268CD
:103B0C0018BF0123920630D44946384604F14302CB
:103B1C00C047013023D02368226903F00603042B2D
:103B2C0014BF002533684FF0000608BFE56804F1A8
:103B3C001A0408BFED1A54F8123C08BF25EAE575C3
:103B4C009342C4BF9B1AED18B5421AD1002008E06D
:103B5C000123524649463846C047013003D14FF045
:103B6C00FF30BDE8F0870135C1E73020E11881F85E
:103B7C0043005A1C94F845102244023382F8431037
:103B8C00C2E70123224649463846C0470130E6D0F9
:103B9C000136D9E72DE9FF470F7E9146782F8046F5
:103BAC000C469A460C9D01F1430207D8622F0AD8A5
:103BBC00002F00F0D580582F00F0C18004F1420591
:103BCC0084F842703AE0A7F16303152BF6D801A1F3
:103BDC0051F823F0393C00084D3C0008C93B000863
:103BEC00C93B0008C93B0008C93B00084D3C000814
:103BFC00C93B0008C93B0008C93B0008C93B000889
:103C0C00533D0008793C00080D3D0008C93B0008F5
:103C1C00C93B0008753D0008C93B0008793C000809
:103C2C00C93B0008C93B0008153D00082B681A1D4C
:103C3C001B682A6004F1420584F842300123A0E09D
:103C4C0020682B68070603F10401296001D51E6862
:103C5C0003E04606FBD5B3F90060002E03DA2D23F2
:103C6C00764284F843300A23594812E02B682068C6
:103C7C00191D2960050601D51E6802E04106FBD519
:103C8C001E886F2F0CBF08230A235148002184F88B
:103C9C0043106568002DA8BF2168A560A4BF21F062
:103CAC00040121600EB9002D4BD01546B6FBF3F183
:103CBC0003FB1167C75D05F8017D3746BB420E4615
:103CCC00F4D9082B0BD12368DE0708D5236961686A
:103CDC009942DEBF302305F8013C05F1FF35521B3C
:103CEC0022614B4621464046CDF800A003AAFFF7BF
:103CFC00DFFE01304AD14FF0FF3004B0BDE8F08751
:103D0C00236843F0200323607827324884F84570F9
:103D1C00236829681F0651F8046B02D45F0648BF5C
:103D2C00B6B2DF0748BF43F02003296048BF2360C9
:103D3C001EB9236823F0200323601023A6E7244830
:103D4C00E4E71546BDE72B682668181D61692860F5
:103D5C0035061B6801D5196002E07006FBD5198089
:103D6C00002315462361BCE72B6800211A1D2A602D
:103D7C001D686268284600F059F808B1401B606065
:103D8C0063682361002384F84330AAE72A46494636
:103D9C0040462369D0470130ADD023689B0713D42C
:103DAC00E068039B9842B8BF1846A6E70123324649
:103DBC0049464046D04701309DD00135E368039910
:103DCC005B1AAB42F2DCEBE7002504F11906F5E7D0
:103DDC006B3F00087C3F0008884210B501EB0204E1
:103DEC0002D98442234607D8431EA14208D011F8B9
:103DFC00012B03F8012FF8E7014602448A4200D157
:103E0C0010BD13F8014D02F8014DF7E738B500234A
:103E1C00054D044608462B60FDF7DAFC431C02D125
:103E2C002B6803B1236038BDC0020020034610B5D7
:103E3C00C9B202449342184601D1002003E0047831
:103E4C0001338C42F6D110BD0A44914200F1FF338C
:103E5C0000D1704710B511F8014B914203F8014F96
:103E6C00F9D110BD2DE9F041804614460E4621B91A
:103E7C001146BDE8F041FFF737BC2AB9FFF7CCFB80
:103E8C0025462846BDE8F08100F01BF88442074621
:103E9C0002D8B4EB500F12D821464046FFF724FC51
:103EAC0005460028EDD0BC422246314628BF3A4692
:103EBC00FFF7CAFF31464046FFF7AEFBE1E7354658
:103ECC00DFE751F8043C181F002BBCBF0B58C0187F
:103EDC0070470000F8B500BFF8BC08BC9E467047A0
:0C3EEC00F8B500BFF8BC08BC9E4670474B
:103EF80057656C636F6D6500746F204353453333AA
:103F08003100000054656D703A25642E2564204305
:103F18000000000048756D69646974793A25642E5B
:103F28002564202525000000000000000000000096
:103F38000102030406070809000000000102030447
:103F480002030405060708090A0B0C0D0E0F1010D2
:103F58000102232D302B2000686C4C0065666745F4
:103F680046470030313233343536373839414243E9
:103F7800444546003031323334353637383961629A
:083F880063646566000000009F
:043F900031010008F3
:043F94000D01000813
:103F98000024F400100000000100000000000000F0
:103FA80088010020F00100205802002000000000D5
:103FB80000000000000000000000000000000000F9
:103FC80000000000000000000000000000000000E9
:103FD80000000000000000000000000000000000D9
:0C3FE80000000000000000000C000020A1
:040000050800185582
:00000001FF
